{
  "contractName": "CLODAORegistry",
  "abi": [
    {
      "inputs": [],
      "stateMutability": "nonpayable",
      "type": "constructor"
    },
    {
      "inputs": [
        {
          "internalType": "string",
          "name": "",
          "type": "string"
        }
      ],
      "name": "deployedDAOAddressesByPurpose",
      "outputs": [
        {
          "internalType": "address",
          "name": "",
          "type": "address"
        }
      ],
      "stateMutability": "view",
      "type": "function"
    },
    {
      "inputs": [
        {
          "internalType": "address",
          "name": "",
          "type": "address"
        }
      ],
      "name": "deployedDAOByAddress",
      "outputs": [
        {
          "internalType": "address",
          "name": "daoLocation",
          "type": "address"
        },
        {
          "internalType": "string",
          "name": "daoPurpose",
          "type": "string"
        }
      ],
      "stateMutability": "view",
      "type": "function"
    },
    {
      "inputs": [
        {
          "internalType": "address",
          "name": "daoAddress",
          "type": "address"
        },
        {
          "internalType": "string",
          "name": "daoPurpose",
          "type": "string"
        }
      ],
      "name": "registerDAOFormation",
      "outputs": [],
      "stateMutability": "nonpayable",
      "type": "function"
    },
    {
      "inputs": [
        {
          "internalType": "string",
          "name": "purpose",
          "type": "string"
        }
      ],
      "name": "getDAOAddressByPurpose",
      "outputs": [
        {
          "internalType": "address",
          "name": "",
          "type": "address"
        }
      ],
      "stateMutability": "view",
      "type": "function"
    },
    {
      "inputs": [],
      "name": "getOwningFactory",
      "outputs": [
        {
          "internalType": "address",
          "name": "",
          "type": "address"
        }
      ],
      "stateMutability": "view",
      "type": "function"
    },
    {
      "inputs": [],
      "name": "getFactoryOperator",
      "outputs": [
        {
          "internalType": "address",
          "name": "",
          "type": "address"
        }
      ],
      "stateMutability": "view",
      "type": "function"
    }
  ],
  "bytecode": "0x608060405234801561001057600080fd5b50336000806101000a81548173ffffffffffffffffffffffffffffffffffffffff021916908373ffffffffffffffffffffffffffffffffffffffff16021790555032600160006101000a81548173ffffffffffffffffffffffffffffffffffffffff021916908373ffffffffffffffffffffffffffffffffffffffff160217905550610ac4806100a16000396000f3fe608060405234801561001057600080fd5b50600436106100625760003560e01c806308323109146100675780633731f810146100975780634739ccdc146100c75780635e4e1c06146100e5578063c5e27b4414610116578063cfaaa23e14610134575b600080fd5b610081600480360381019061007c91906106d9565b610150565b60405161008e9190610763565b60405180910390f35b6100b160048036038101906100ac91906107de565b610199565b6040516100be9190610763565b60405180910390f35b6100cf6101e4565b6040516100dc9190610763565b60405180910390f35b6100ff60048036038101906100fa9190610857565b61020d565b60405161010d92919061090c565b60405180910390f35b61011e6102d9565b60405161012b9190610763565b60405180910390f35b61014e6004803603810190610149919061093c565b610303565b005b6003818051602081018201805184825260208301602085012081835280955050505050506000915054906101000a900473ffffffffffffffffffffffffffffffffffffffff1681565b6000600383836040516101ad9291906109cc565b908152602001604051809103902060009054906101000a900473ffffffffffffffffffffffffffffffffffffffff16905092915050565b60008060009054906101000a900473ffffffffffffffffffffffffffffffffffffffff16905090565b60026020528060005260406000206000915090508060000160009054906101000a900473ffffffffffffffffffffffffffffffffffffffff169080600101805461025690610a14565b80601f016020809104026020016040519081016040528092919081815260200182805461028290610a14565b80156102cf5780601f106102a4576101008083540402835291602001916102cf565b820191906000526020600020905b8154815290600101906020018083116102b257829003601f168201915b5050505050905082565b6000600160009054906101000a900473ffffffffffffffffffffffffffffffffffffffff16905090565b60008054906101000a900473ffffffffffffffffffffffffffffffffffffffff1673ffffffffffffffffffffffffffffffffffffffff163373ffffffffffffffffffffffffffffffffffffffff161461035b57600080fd5b600060405180604001604052808573ffffffffffffffffffffffffffffffffffffffff16815260200184848080601f016020809104026020016040519081016040528093929190818152602001838380828437600081840152601f19601f82011690508083019250505050505050815250905080600260008673ffffffffffffffffffffffffffffffffffffffff1673ffffffffffffffffffffffffffffffffffffffff16815260200190815260200160002060008201518160000160006101000a81548173ffffffffffffffffffffffffffffffffffffffff021916908373ffffffffffffffffffffffffffffffffffffffff16021790555060208201518160010190805190602001906104719291906104dc565b50905050836003826020015160405161048a9190610a77565b908152602001604051809103902060006101000a81548173ffffffffffffffffffffffffffffffffffffffff021916908373ffffffffffffffffffffffffffffffffffffffff16021790555050505050565b8280546104e890610a14565b90600052602060002090601f01602090048101928261050a5760008555610551565b82601f1061052357805160ff1916838001178555610551565b82800160010185558215610551579182015b82811115610550578251825591602001919060010190610535565b5b50905061055e9190610562565b5090565b5b8082111561057b576000816000905550600101610563565b5090565b6000604051905090565b600080fd5b600080fd5b600080fd5b600080fd5b6000601f19601f8301169050919050565b7f4e487b7100000000000000000000000000000000000000000000000000000000600052604160045260246000fd5b6105e68261059d565b810181811067ffffffffffffffff82111715610605576106046105ae565b5b80604052505050565b600061061861057f565b905061062482826105dd565b919050565b600067ffffffffffffffff821115610644576106436105ae565b5b61064d8261059d565b9050602081019050919050565b82818337600083830152505050565b600061067c61067784610629565b61060e565b90508281526020810184848401111561069857610697610598565b5b6106a384828561065a565b509392505050565b600082601f8301126106c0576106bf610593565b5b81356106d0848260208601610669565b91505092915050565b6000602082840312156106ef576106ee610589565b5b600082013567ffffffffffffffff81111561070d5761070c61058e565b5b610719848285016106ab565b91505092915050565b600073ffffffffffffffffffffffffffffffffffffffff82169050919050565b600061074d82610722565b9050919050565b61075d81610742565b82525050565b60006020820190506107786000830184610754565b92915050565b600080fd5b600080fd5b60008083601f84011261079e5761079d610593565b5b8235905067ffffffffffffffff8111156107bb576107ba61077e565b5b6020830191508360018202830111156107d7576107d6610783565b5b9250929050565b600080602083850312156107f5576107f4610589565b5b600083013567ffffffffffffffff8111156108135761081261058e565b5b61081f85828601610788565b92509250509250929050565b61083481610742565b811461083f57600080fd5b50565b6000813590506108518161082b565b92915050565b60006020828403121561086d5761086c610589565b5b600061087b84828501610842565b91505092915050565b600081519050919050565b600082825260208201905092915050565b60005b838110156108be5780820151818401526020810190506108a3565b838111156108cd576000848401525b50505050565b60006108de82610884565b6108e8818561088f565b93506108f88185602086016108a0565b6109018161059d565b840191505092915050565b60006040820190506109216000830185610754565b818103602083015261093381846108d3565b90509392505050565b60008060006040848603121561095557610954610589565b5b600061096386828701610842565b935050602084013567ffffffffffffffff8111156109845761098361058e565b5b61099086828701610788565b92509250509250925092565b600081905092915050565b60006109b3838561099c565b93506109c083858461065a565b82840190509392505050565b60006109d98284866109a7565b91508190509392505050565b7f4e487b7100000000000000000000000000000000000000000000000000000000600052602260045260246000fd5b60006002820490506001821680610a2c57607f821691505b60208210811415610a4057610a3f6109e5565b5b50919050565b6000610a5182610884565b610a5b818561099c565b9350610a6b8185602086016108a0565b80840191505092915050565b6000610a838284610a46565b91508190509291505056fea2646970667358221220f7e254368f7a2a16269c8bb4d2f2e698bd421031859b6e950cca915e12c7814364736f6c634300080a0033",
  "immutableReferences": {},
  "source": "pragma solidity ^0.8.0;\n\n// SPDX-License-Identifier: Apache-2.0\n\ncontract CLODAORegistry {\n\n  struct DeployedDAO {\n    address daoLocation;\n    string daoPurpose;\n  }\n\n  address owningFactory;\n  address factoryOperator;\n\n  mapping(address => DeployedDAO) public deployedDAOByAddress;\n  mapping(string => address) public deployedDAOAddressesByPurpose;\n\n\n  modifier onlyOwningFactory {\n    require(msg.sender == owningFactory);\n    _;\n  }\n\n\n  constructor() {\n    owningFactory = msg.sender;\n    factoryOperator = tx.origin;\n  }\n\n  function registerDAOFormation(address daoAddress, string calldata daoPurpose) public onlyOwningFactory {\n    DeployedDAO memory dd = DeployedDAO(daoAddress, daoPurpose);\n    deployedDAOByAddress[daoAddress] = dd;\n    deployedDAOAddressesByPurpose[dd.daoPurpose] = daoAddress;\n  }\n\n  function getDAOAddressByPurpose(string calldata purpose) public view returns (address) {\n    return deployedDAOAddressesByPurpose[purpose];\n  }\n\n\n\n  function getOwningFactory() public view returns (address) {\n    return owningFactory;\n  }\n\n  function getFactoryOperator() public view returns (address) {\n    return factoryOperator;\n  }\n\n\n}\n",
  "sourcePath": "/Users/michaeldowling/Projects/clodao/github.com/michaeldowling/clodao/dlt/contracts/CLODAORegistry.sol",
  "compiler": {
    "name": "solc",
    "version": "0.8.10+commit.fc410830.Emscripten.clang"
  },
  "schemaVersion": "3.4.3",
  "updatedAt": "2021-12-04T00:18:02.407Z",
  "devdoc": {
    "kind": "dev",
    "methods": {},
    "version": 1
  },
  "userdoc": {
    "kind": "user",
    "methods": {},
    "version": 1
  }
}