{
  "contractName": "CLODAOFactory",
  "abi": [
    {
      "inputs": [],
      "stateMutability": "nonpayable",
      "type": "constructor"
    },
    {
      "inputs": [],
      "name": "factoryOperator",
      "outputs": [
        {
          "internalType": "address",
          "name": "",
          "type": "address"
        }
      ],
      "stateMutability": "view",
      "type": "function"
    },
    {
      "inputs": [],
      "name": "globalRegistryLocation",
      "outputs": [
        {
          "internalType": "address",
          "name": "",
          "type": "address"
        }
      ],
      "stateMutability": "view",
      "type": "function"
    },
    {
      "inputs": [],
      "name": "initializeGlobalRegistry",
      "outputs": [],
      "stateMutability": "nonpayable",
      "type": "function"
    },
    {
      "inputs": [
        {
          "internalType": "string",
          "name": "purpose",
          "type": "string"
        }
      ],
      "name": "create",
      "outputs": [],
      "stateMutability": "nonpayable",
      "type": "function"
    },
    {
      "inputs": [],
      "name": "getGlobalRegistry",
      "outputs": [
        {
          "internalType": "address",
          "name": "",
          "type": "address"
        }
      ],
      "stateMutability": "view",
      "type": "function"
    },
    {
      "inputs": [],
      "name": "getFactoryOperator",
      "outputs": [
        {
          "internalType": "address",
          "name": "",
          "type": "address"
        }
      ],
      "stateMutability": "view",
      "type": "function"
    }
  ],
  "bytecode": "0x608060405234801561001057600080fd5b5033600160006101000a81548173ffffffffffffffffffffffffffffffffffffffff021916908373ffffffffffffffffffffffffffffffffffffffff160217905550611d11806100616000396000f3fe608060405234801561001057600080fd5b50600436106100625760003560e01c80630138dd4a1461006757806387a0784314610085578063b6a46b3b146100a3578063c5e27b44146100bf578063d4a64363146100dd578063e3143eb0146100fb575b600080fd5b61006f610105565b60405161007c9190610470565b60405180910390f35b61008d610129565b60405161009a9190610470565b60405180910390f35b6100bd60048036038101906100b891906104fa565b610152565b005b6100c76102a0565b6040516100d49190610470565b60405180910390f35b6100e56102ca565b6040516100f29190610470565b60405180910390f35b6101036102f0565b005b60008054906101000a900473ffffffffffffffffffffffffffffffffffffffff1681565b60008060009054906101000a900473ffffffffffffffffffffffffffffffffffffffff16905090565b600160009054906101000a900473ffffffffffffffffffffffffffffffffffffffff1673ffffffffffffffffffffffffffffffffffffffff163373ffffffffffffffffffffffffffffffffffffffff16146101ac57600080fd5b60008060009054906101000a900473ffffffffffffffffffffffffffffffffffffffff166040516101dc90610413565b6101e69190610470565b604051809103906000f080158015610202573d6000803e3d6000fd5b50905060008060009054906101000a900473ffffffffffffffffffffffffffffffffffffffff1690508073ffffffffffffffffffffffffffffffffffffffff1663cfaaa23e8386866040518463ffffffff1660e01b8152600401610268939291906105a5565b600060405180830381600087803b15801561028257600080fd5b505af1158015610296573d6000803e3d6000fd5b5050505050505050565b6000600160009054906101000a900473ffffffffffffffffffffffffffffffffffffffff16905090565b600160009054906101000a900473ffffffffffffffffffffffffffffffffffffffff1681565b600160009054906101000a900473ffffffffffffffffffffffffffffffffffffffff1673ffffffffffffffffffffffffffffffffffffffff163373ffffffffffffffffffffffffffffffffffffffff161461034a57600080fd5b600073ffffffffffffffffffffffffffffffffffffffff1660008054906101000a900473ffffffffffffffffffffffffffffffffffffffff1673ffffffffffffffffffffffffffffffffffffffff16146103a357600080fd5b60006040516103b190610421565b604051809103906000f0801580156103cd573d6000803e3d6000fd5b509050806000806101000a81548173ffffffffffffffffffffffffffffffffffffffff021916908373ffffffffffffffffffffffffffffffffffffffff16021790555050565b610b9f80620005d883390190565b610b65806200117783390190565b600073ffffffffffffffffffffffffffffffffffffffff82169050919050565b600061045a8261042f565b9050919050565b61046a8161044f565b82525050565b60006020820190506104856000830184610461565b92915050565b600080fd5b600080fd5b600080fd5b600080fd5b600080fd5b60008083601f8401126104ba576104b9610495565b5b8235905067ffffffffffffffff8111156104d7576104d661049a565b5b6020830191508360018202830111156104f3576104f261049f565b5b9250929050565b600080602083850312156105115761051061048b565b5b600083013567ffffffffffffffff81111561052f5761052e610490565b5b61053b858286016104a4565b92509250509250929050565b600082825260208201905092915050565b82818337600083830152505050565b6000601f19601f8301169050919050565b60006105848385610547565b9350610591838584610558565b61059a83610567565b840190509392505050565b60006040820190506105ba6000830186610461565b81810360208301526105cd818486610578565b905094935050505056fe608060405234801561001057600080fd5b50604051610b9f380380610b9f833981810160405281019061003291906102d7565b33600160006101000a81548173ffffffffffffffffffffffffffffffffffffffff021916908373ffffffffffffffffffffffffffffffffffffffff160217905550806000806101000a81548173ffffffffffffffffffffffffffffffffffffffff021916908373ffffffffffffffffffffffffffffffffffffffff16021790555032600260006101000a81548173ffffffffffffffffffffffffffffffffffffffff021916908373ffffffffffffffffffffffffffffffffffffffff1602179055506040518060e00160405280600063ffffffff168152602001600063ffffffff168152602001600063ffffffff168152602001600063ffffffff168152602001600063ffffffff168152602001600063ffffffff168152602001600063ffffffff16815250600460008201518160000160006101000a81548163ffffffff021916908363ffffffff16021790555060208201518160000160046101000a81548163ffffffff021916908363ffffffff16021790555060408201518160000160086101000a81548163ffffffff021916908363ffffffff160217905550606082015181600001600c6101000a81548163ffffffff021916908363ffffffff16021790555060808201518160000160106101000a81548163ffffffff021916908363ffffffff16021790555060a08201518160000160146101000a81548163ffffffff021916908363ffffffff16021790555060c08201518160000160186101000a81548163ffffffff021916908363ffffffff16021790555090505050610304565b600080fd5b600073ffffffffffffffffffffffffffffffffffffffff82169050919050565b60006102a482610279565b9050919050565b6102b481610299565b81146102bf57600080fd5b50565b6000815190506102d1816102ab565b92915050565b6000602082840312156102ed576102ec610274565b5b60006102fb848285016102c2565b91505092915050565b61088c806103136000396000f3fe608060405234801561001057600080fd5b50600436106100935760003560e01c80635ab1bd53116100665780635ab1bd531461012157806388cc58e41461013f57806395e272bd1461015d5780639bffd29014610181578063d6c8e8a61461019f57610093565b8063298410e514610098578063369e7dab146100b4578063372d6b27146100d257806345aee0f7146100f1575b600080fd5b6100b260048036038101906100ad91906105f6565b6101bd565b005b6100bc6103ba565b6040516100c99190610632565b60405180910390f35b6100da6103e0565b6040516100e892919061066c565b60405180910390f35b61010b600480360381019061010691906106cb565b610417565b6040516101189190610632565b60405180910390f35b610129610456565b6040516101369190610632565b60405180910390f35b61014761047f565b6040516101549190610632565b60405180910390f35b6101656104a9565b60405161017897969594939291906106f8565b60405180910390f35b610189610549565b6040516101969190610632565b60405180910390f35b6101a761056f565b6040516101b49190610632565b60405180910390f35b600260009054906101000a900473ffffffffffffffffffffffffffffffffffffffff1673ffffffffffffffffffffffffffffffffffffffff163373ffffffffffffffffffffffffffffffffffffffff161461021757600080fd5b60008190506004600001600081819054906101000a900463ffffffff168092919061024190610796565b91906101000a81548163ffffffff021916908363ffffffff160217905550508073ffffffffffffffffffffffffffffffffffffffff1663ba5d30786040518163ffffffff1660e01b8152600401602060405180830381865afa1580156102ab573d6000803e3d6000fd5b505050506040513d601f19601f820116820180604052508101906102cf91906107ef565b600460000160048282829054906101000a900463ffffffff166102f2919061081c565b92506101000a81548163ffffffff021916908363ffffffff1602179055506003829080600181540180825580915050600190039060005260206000200160009091909190916101000a81548173ffffffffffffffffffffffffffffffffffffffff021916908373ffffffffffffffffffffffffffffffffffffffff1602179055508173ffffffffffffffffffffffffffffffffffffffff167f0e3c58ebfb2e7465fbb1c32e6b4f40c3c4f5ca77e8218a386aff8617831260d760405160405180910390a25050565b600160009054906101000a900473ffffffffffffffffffffffffffffffffffffffff1681565b600080600460000160009054906101000a900463ffffffff16600460000160049054906101000a900463ffffffff16915091509091565b6003818154811061042757600080fd5b906000526020600020016000915054906101000a900473ffffffffffffffffffffffffffffffffffffffff1681565b60008060009054906101000a900473ffffffffffffffffffffffffffffffffffffffff16905090565b6000600160009054906101000a900473ffffffffffffffffffffffffffffffffffffffff16905090565b60048060000160009054906101000a900463ffffffff16908060000160049054906101000a900463ffffffff16908060000160089054906101000a900463ffffffff169080600001600c9054906101000a900463ffffffff16908060000160109054906101000a900463ffffffff16908060000160149054906101000a900463ffffffff16908060000160189054906101000a900463ffffffff16905087565b600260009054906101000a900473ffffffffffffffffffffffffffffffffffffffff1681565b60008054906101000a900473ffffffffffffffffffffffffffffffffffffffff1681565b600080fd5b600073ffffffffffffffffffffffffffffffffffffffff82169050919050565b60006105c382610598565b9050919050565b6105d3816105b8565b81146105de57600080fd5b50565b6000813590506105f0816105ca565b92915050565b60006020828403121561060c5761060b610593565b5b600061061a848285016105e1565b91505092915050565b61062c816105b8565b82525050565b60006020820190506106476000830184610623565b92915050565b600063ffffffff82169050919050565b6106668161064d565b82525050565b6000604082019050610681600083018561065d565b61068e602083018461065d565b9392505050565b6000819050919050565b6106a881610695565b81146106b357600080fd5b50565b6000813590506106c58161069f565b92915050565b6000602082840312156106e1576106e0610593565b5b60006106ef848285016106b6565b91505092915050565b600060e08201905061070d600083018a61065d565b61071a602083018961065d565b610727604083018861065d565b610734606083018761065d565b610741608083018661065d565b61074e60a083018561065d565b61075b60c083018461065d565b98975050505050505050565b7f4e487b7100000000000000000000000000000000000000000000000000000000600052601160045260246000fd5b60006107a18261064d565b915063ffffffff8214156107b8576107b7610767565b5b600182019050919050565b6107cc8161064d565b81146107d757600080fd5b50565b6000815190506107e9816107c3565b92915050565b60006020828403121561080557610804610593565b5b6000610813848285016107da565b91505092915050565b60006108278261064d565b91506108328361064d565b92508263ffffffff0382111561084b5761084a610767565b5b82820190509291505056fea2646970667358221220791621799317f7c99243318a46eb31feb38f25ad5b9e601b753f3f3931bfa21c64736f6c634300080a0033608060405234801561001057600080fd5b50336000806101000a81548173ffffffffffffffffffffffffffffffffffffffff021916908373ffffffffffffffffffffffffffffffffffffffff16021790555032600160006101000a81548173ffffffffffffffffffffffffffffffffffffffff021916908373ffffffffffffffffffffffffffffffffffffffff160217905550610ac4806100a16000396000f3fe608060405234801561001057600080fd5b50600436106100625760003560e01c806308323109146100675780633731f810146100975780634739ccdc146100c75780635e4e1c06146100e5578063c5e27b4414610116578063cfaaa23e14610134575b600080fd5b610081600480360381019061007c91906106d9565b610150565b60405161008e9190610763565b60405180910390f35b6100b160048036038101906100ac91906107de565b610199565b6040516100be9190610763565b60405180910390f35b6100cf6101e4565b6040516100dc9190610763565b60405180910390f35b6100ff60048036038101906100fa9190610857565b61020d565b60405161010d92919061090c565b60405180910390f35b61011e6102d9565b60405161012b9190610763565b60405180910390f35b61014e6004803603810190610149919061093c565b610303565b005b6003818051602081018201805184825260208301602085012081835280955050505050506000915054906101000a900473ffffffffffffffffffffffffffffffffffffffff1681565b6000600383836040516101ad9291906109cc565b908152602001604051809103902060009054906101000a900473ffffffffffffffffffffffffffffffffffffffff16905092915050565b60008060009054906101000a900473ffffffffffffffffffffffffffffffffffffffff16905090565b60026020528060005260406000206000915090508060000160009054906101000a900473ffffffffffffffffffffffffffffffffffffffff169080600101805461025690610a14565b80601f016020809104026020016040519081016040528092919081815260200182805461028290610a14565b80156102cf5780601f106102a4576101008083540402835291602001916102cf565b820191906000526020600020905b8154815290600101906020018083116102b257829003601f168201915b5050505050905082565b6000600160009054906101000a900473ffffffffffffffffffffffffffffffffffffffff16905090565b60008054906101000a900473ffffffffffffffffffffffffffffffffffffffff1673ffffffffffffffffffffffffffffffffffffffff163373ffffffffffffffffffffffffffffffffffffffff161461035b57600080fd5b600060405180604001604052808573ffffffffffffffffffffffffffffffffffffffff16815260200184848080601f016020809104026020016040519081016040528093929190818152602001838380828437600081840152601f19601f82011690508083019250505050505050815250905080600260008673ffffffffffffffffffffffffffffffffffffffff1673ffffffffffffffffffffffffffffffffffffffff16815260200190815260200160002060008201518160000160006101000a81548173ffffffffffffffffffffffffffffffffffffffff021916908373ffffffffffffffffffffffffffffffffffffffff16021790555060208201518160010190805190602001906104719291906104dc565b50905050836003826020015160405161048a9190610a77565b908152602001604051809103902060006101000a81548173ffffffffffffffffffffffffffffffffffffffff021916908373ffffffffffffffffffffffffffffffffffffffff16021790555050505050565b8280546104e890610a14565b90600052602060002090601f01602090048101928261050a5760008555610551565b82601f1061052357805160ff1916838001178555610551565b82800160010185558215610551579182015b82811115610550578251825591602001919060010190610535565b5b50905061055e9190610562565b5090565b5b8082111561057b576000816000905550600101610563565b5090565b6000604051905090565b600080fd5b600080fd5b600080fd5b600080fd5b6000601f19601f8301169050919050565b7f4e487b7100000000000000000000000000000000000000000000000000000000600052604160045260246000fd5b6105e68261059d565b810181811067ffffffffffffffff82111715610605576106046105ae565b5b80604052505050565b600061061861057f565b905061062482826105dd565b919050565b600067ffffffffffffffff821115610644576106436105ae565b5b61064d8261059d565b9050602081019050919050565b82818337600083830152505050565b600061067c61067784610629565b61060e565b90508281526020810184848401111561069857610697610598565b5b6106a384828561065a565b509392505050565b600082601f8301126106c0576106bf610593565b5b81356106d0848260208601610669565b91505092915050565b6000602082840312156106ef576106ee610589565b5b600082013567ffffffffffffffff81111561070d5761070c61058e565b5b610719848285016106ab565b91505092915050565b600073ffffffffffffffffffffffffffffffffffffffff82169050919050565b600061074d82610722565b9050919050565b61075d81610742565b82525050565b60006020820190506107786000830184610754565b92915050565b600080fd5b600080fd5b60008083601f84011261079e5761079d610593565b5b8235905067ffffffffffffffff8111156107bb576107ba61077e565b5b6020830191508360018202830111156107d7576107d6610783565b5b9250929050565b600080602083850312156107f5576107f4610589565b5b600083013567ffffffffffffffff8111156108135761081261058e565b5b61081f85828601610788565b92509250509250929050565b61083481610742565b811461083f57600080fd5b50565b6000813590506108518161082b565b92915050565b60006020828403121561086d5761086c610589565b5b600061087b84828501610842565b91505092915050565b600081519050919050565b600082825260208201905092915050565b60005b838110156108be5780820151818401526020810190506108a3565b838111156108cd576000848401525b50505050565b60006108de82610884565b6108e8818561088f565b93506108f88185602086016108a0565b6109018161059d565b840191505092915050565b60006040820190506109216000830185610754565b818103602083015261093381846108d3565b90509392505050565b60008060006040848603121561095557610954610589565b5b600061096386828701610842565b935050602084013567ffffffffffffffff8111156109845761098361058e565b5b61099086828701610788565b92509250509250925092565b600081905092915050565b60006109b3838561099c565b93506109c083858461065a565b82840190509392505050565b60006109d98284866109a7565b91508190509392505050565b7f4e487b7100000000000000000000000000000000000000000000000000000000600052602260045260246000fd5b60006002820490506001821680610a2c57607f821691505b60208210811415610a4057610a3f6109e5565b5b50919050565b6000610a5182610884565b610a5b818561099c565b9350610a6b8185602086016108a0565b80840191505092915050565b6000610a838284610a46565b91508190509291505056fea2646970667358221220f7e254368f7a2a16269c8bb4d2f2e698bd421031859b6e950cca915e12c7814364736f6c634300080a0033a2646970667358221220db7239d1cfddba5341208ca10b9d6d35698dc92f98af2f5d7fd21768cde0996d64736f6c634300080a0033",
  "immutableReferences": {},
  "source": "// SPDX-License-Identifier: Apache-2.0\npragma solidity ^0.8.0;\n\nimport \"./CLODAORegistry.sol\";\nimport \"./CLODAO.sol\";\n\ncontract CLODAOFactory {\n\n  address public globalRegistryLocation;\n  address public factoryOperator;\n\n  constructor() {\n    factoryOperator = msg.sender;\n  }\n\n  modifier onlyFactoryOperator {\n    require(msg.sender == factoryOperator);\n    _;\n  }\n\n  modifier onlyUninitRegistry {\n    require(globalRegistryLocation == address(0x0));\n    _;\n  }\n\n  function initializeGlobalRegistry() public onlyFactoryOperator onlyUninitRegistry {\n\n    CLODAORegistry registry = new CLODAORegistry();\n    globalRegistryLocation = address(registry);\n\n  }\n\n  function create(string calldata purpose) public onlyFactoryOperator {\n\n    CLODAO dao = new CLODAO(globalRegistryLocation);\n    CLODAORegistry registry = CLODAORegistry(globalRegistryLocation);\n    registry.registerDAOFormation(address(dao), purpose);\n\n\n  }\n\n  function getGlobalRegistry() public view returns (address) {\n    return globalRegistryLocation;\n  }\n\n  function getFactoryOperator() public view returns (address) {\n    return factoryOperator;\n  }\n\n\n\n}\n",
  "sourcePath": "/Users/michaeldowling/Projects/clodao/github.com/michaeldowling/clodao/dlt/contracts/CLODAOFactory.sol",
  "compiler": {
    "name": "solc",
    "version": "0.8.10+commit.fc410830.Emscripten.clang"
  },
  "schemaVersion": "3.4.3",
  "updatedAt": "2021-12-04T02:26:36.350Z",
  "devdoc": {
    "kind": "dev",
    "methods": {},
    "version": 1
  },
  "userdoc": {
    "kind": "user",
    "methods": {},
    "version": 1
  }
}