{
  "contractName": "CLODAO",
  "abi": [
    {
      "inputs": [
        {
          "internalType": "address",
          "name": "currentRegistry",
          "type": "address"
        }
      ],
      "stateMutability": "nonpayable",
      "type": "constructor"
    },
    {
      "anonymous": false,
      "inputs": [
        {
          "indexed": true,
          "internalType": "address",
          "name": "asset",
          "type": "address"
        }
      ],
      "name": "AssetAdded",
      "type": "event"
    },
    {
      "inputs": [
        {
          "internalType": "uint256",
          "name": "",
          "type": "uint256"
        }
      ],
      "name": "clodaoAssets",
      "outputs": [
        {
          "internalType": "address",
          "name": "",
          "type": "address"
        }
      ],
      "stateMutability": "view",
      "type": "function"
    },
    {
      "inputs": [],
      "name": "daoSponsor",
      "outputs": [
        {
          "internalType": "address",
          "name": "",
          "type": "address"
        }
      ],
      "stateMutability": "view",
      "type": "function"
    },
    {
      "inputs": [],
      "name": "factoryLocation",
      "outputs": [
        {
          "internalType": "address",
          "name": "",
          "type": "address"
        }
      ],
      "stateMutability": "view",
      "type": "function"
    },
    {
      "inputs": [],
      "name": "registryLocation",
      "outputs": [
        {
          "internalType": "address",
          "name": "",
          "type": "address"
        }
      ],
      "stateMutability": "view",
      "type": "function"
    },
    {
      "inputs": [],
      "name": "statistics",
      "outputs": [
        {
          "internalType": "uint32",
          "name": "totalAssetCount",
          "type": "uint32"
        },
        {
          "internalType": "uint32",
          "name": "totalPrincipal",
          "type": "uint32"
        },
        {
          "internalType": "uint32",
          "name": "averageInterestRate",
          "type": "uint32"
        },
        {
          "internalType": "uint32",
          "name": "lowestInterestRate",
          "type": "uint32"
        },
        {
          "internalType": "uint32",
          "name": "highestInterestRate",
          "type": "uint32"
        },
        {
          "internalType": "uint32",
          "name": "medianInterestRate",
          "type": "uint32"
        },
        {
          "internalType": "uint32",
          "name": "totalPotentialMonthlyIncome",
          "type": "uint32"
        }
      ],
      "stateMutability": "view",
      "type": "function"
    },
    {
      "inputs": [],
      "name": "getFactory",
      "outputs": [
        {
          "internalType": "address",
          "name": "",
          "type": "address"
        }
      ],
      "stateMutability": "view",
      "type": "function"
    },
    {
      "inputs": [],
      "name": "getRegistry",
      "outputs": [
        {
          "internalType": "address",
          "name": "",
          "type": "address"
        }
      ],
      "stateMutability": "view",
      "type": "function"
    },
    {
      "inputs": [],
      "name": "getStatistics",
      "outputs": [
        {
          "internalType": "uint32",
          "name": "",
          "type": "uint32"
        },
        {
          "internalType": "uint32",
          "name": "",
          "type": "uint32"
        }
      ],
      "stateMutability": "view",
      "type": "function"
    },
    {
      "inputs": [
        {
          "internalType": "address",
          "name": "clodaoAssetAddr",
          "type": "address"
        }
      ],
      "name": "addAsset",
      "outputs": [],
      "stateMutability": "nonpayable",
      "type": "function"
    }
  ],
  "bytecode": "0x608060405234801561001057600080fd5b50604051610b9f380380610b9f833981810160405281019061003291906102d7565b33600160006101000a81548173ffffffffffffffffffffffffffffffffffffffff021916908373ffffffffffffffffffffffffffffffffffffffff160217905550806000806101000a81548173ffffffffffffffffffffffffffffffffffffffff021916908373ffffffffffffffffffffffffffffffffffffffff16021790555032600260006101000a81548173ffffffffffffffffffffffffffffffffffffffff021916908373ffffffffffffffffffffffffffffffffffffffff1602179055506040518060e00160405280600063ffffffff168152602001600063ffffffff168152602001600063ffffffff168152602001600063ffffffff168152602001600063ffffffff168152602001600063ffffffff168152602001600063ffffffff16815250600460008201518160000160006101000a81548163ffffffff021916908363ffffffff16021790555060208201518160000160046101000a81548163ffffffff021916908363ffffffff16021790555060408201518160000160086101000a81548163ffffffff021916908363ffffffff160217905550606082015181600001600c6101000a81548163ffffffff021916908363ffffffff16021790555060808201518160000160106101000a81548163ffffffff021916908363ffffffff16021790555060a08201518160000160146101000a81548163ffffffff021916908363ffffffff16021790555060c08201518160000160186101000a81548163ffffffff021916908363ffffffff16021790555090505050610304565b600080fd5b600073ffffffffffffffffffffffffffffffffffffffff82169050919050565b60006102a482610279565b9050919050565b6102b481610299565b81146102bf57600080fd5b50565b6000815190506102d1816102ab565b92915050565b6000602082840312156102ed576102ec610274565b5b60006102fb848285016102c2565b91505092915050565b61088c806103136000396000f3fe608060405234801561001057600080fd5b50600436106100935760003560e01c80635ab1bd53116100665780635ab1bd531461012157806388cc58e41461013f57806395e272bd1461015d5780639bffd29014610181578063d6c8e8a61461019f57610093565b8063298410e514610098578063369e7dab146100b4578063372d6b27146100d257806345aee0f7146100f1575b600080fd5b6100b260048036038101906100ad91906105f6565b6101bd565b005b6100bc6103ba565b6040516100c99190610632565b60405180910390f35b6100da6103e0565b6040516100e892919061066c565b60405180910390f35b61010b600480360381019061010691906106cb565b610417565b6040516101189190610632565b60405180910390f35b610129610456565b6040516101369190610632565b60405180910390f35b61014761047f565b6040516101549190610632565b60405180910390f35b6101656104a9565b60405161017897969594939291906106f8565b60405180910390f35b610189610549565b6040516101969190610632565b60405180910390f35b6101a761056f565b6040516101b49190610632565b60405180910390f35b600260009054906101000a900473ffffffffffffffffffffffffffffffffffffffff1673ffffffffffffffffffffffffffffffffffffffff163373ffffffffffffffffffffffffffffffffffffffff161461021757600080fd5b60008190506004600001600081819054906101000a900463ffffffff168092919061024190610796565b91906101000a81548163ffffffff021916908363ffffffff160217905550508073ffffffffffffffffffffffffffffffffffffffff1663ba5d30786040518163ffffffff1660e01b8152600401602060405180830381865afa1580156102ab573d6000803e3d6000fd5b505050506040513d601f19601f820116820180604052508101906102cf91906107ef565b600460000160048282829054906101000a900463ffffffff166102f2919061081c565b92506101000a81548163ffffffff021916908363ffffffff1602179055506003829080600181540180825580915050600190039060005260206000200160009091909190916101000a81548173ffffffffffffffffffffffffffffffffffffffff021916908373ffffffffffffffffffffffffffffffffffffffff1602179055508173ffffffffffffffffffffffffffffffffffffffff167f0e3c58ebfb2e7465fbb1c32e6b4f40c3c4f5ca77e8218a386aff8617831260d760405160405180910390a25050565b600160009054906101000a900473ffffffffffffffffffffffffffffffffffffffff1681565b600080600460000160009054906101000a900463ffffffff16600460000160049054906101000a900463ffffffff16915091509091565b6003818154811061042757600080fd5b906000526020600020016000915054906101000a900473ffffffffffffffffffffffffffffffffffffffff1681565b60008060009054906101000a900473ffffffffffffffffffffffffffffffffffffffff16905090565b6000600160009054906101000a900473ffffffffffffffffffffffffffffffffffffffff16905090565b60048060000160009054906101000a900463ffffffff16908060000160049054906101000a900463ffffffff16908060000160089054906101000a900463ffffffff169080600001600c9054906101000a900463ffffffff16908060000160109054906101000a900463ffffffff16908060000160149054906101000a900463ffffffff16908060000160189054906101000a900463ffffffff16905087565b600260009054906101000a900473ffffffffffffffffffffffffffffffffffffffff1681565b60008054906101000a900473ffffffffffffffffffffffffffffffffffffffff1681565b600080fd5b600073ffffffffffffffffffffffffffffffffffffffff82169050919050565b60006105c382610598565b9050919050565b6105d3816105b8565b81146105de57600080fd5b50565b6000813590506105f0816105ca565b92915050565b60006020828403121561060c5761060b610593565b5b600061061a848285016105e1565b91505092915050565b61062c816105b8565b82525050565b60006020820190506106476000830184610623565b92915050565b600063ffffffff82169050919050565b6106668161064d565b82525050565b6000604082019050610681600083018561065d565b61068e602083018461065d565b9392505050565b6000819050919050565b6106a881610695565b81146106b357600080fd5b50565b6000813590506106c58161069f565b92915050565b6000602082840312156106e1576106e0610593565b5b60006106ef848285016106b6565b91505092915050565b600060e08201905061070d600083018a61065d565b61071a602083018961065d565b610727604083018861065d565b610734606083018761065d565b610741608083018661065d565b61074e60a083018561065d565b61075b60c083018461065d565b98975050505050505050565b7f4e487b7100000000000000000000000000000000000000000000000000000000600052601160045260246000fd5b60006107a18261064d565b915063ffffffff8214156107b8576107b7610767565b5b600182019050919050565b6107cc8161064d565b81146107d757600080fd5b50565b6000815190506107e9816107c3565b92915050565b60006020828403121561080557610804610593565b5b6000610813848285016107da565b91505092915050565b60006108278261064d565b91506108328361064d565b92508263ffffffff0382111561084b5761084a610767565b5b82820190509291505056fea2646970667358221220791621799317f7c99243318a46eb31feb38f25ad5b9e601b753f3f3931bfa21c64736f6c634300080a0033",
  "immutableReferences": {},
  "source": "// SPDX-License-Identifier: Apache-2.0\npragma solidity ^0.8.0;\n\n\nimport \"./Interfaces/CLODAOAsset.sol\";\n\ncontract CLODAO {\n\n  struct Statistics {\n\n    uint32 totalAssetCount;\n    uint32 totalPrincipal;\n    uint32 averageInterestRate;\n    uint32 lowestInterestRate;\n    uint32 highestInterestRate;\n    uint32 medianInterestRate;\n\n    uint32 totalPotentialMonthlyIncome;\n\n\n  }\n\n  event AssetAdded(address indexed asset);\n\n\n  address public registryLocation;\n  address public factoryLocation;\n  address public daoSponsor;\n\n  address[] public clodaoAssets;\n  Statistics public statistics;\n\n\n  modifier onlyDaoSponsor {\n\n    require(msg.sender == daoSponsor);\n    _;\n\n  }\n\n  constructor(address currentRegistry) {\n    factoryLocation = msg.sender;\n    registryLocation = currentRegistry;\n    daoSponsor = tx.origin;\n\n    statistics = Statistics(\n      0,\n      0,\n      0,\n      0,\n      0,\n      0,\n      0\n    );\n\n  }\n\n  function getFactory() public view returns (address) {\n    return factoryLocation;\n  }\n\n  function getRegistry() public view returns (address) {\n    return registryLocation;\n  }\n\n  function getStatistics() public view returns (uint32, uint32) {\n    return (statistics.totalAssetCount, statistics.totalPrincipal);\n  }\n\n\n  // What is the process for DAO issuance and assets?\n  // The DAO sponsor (i.e. the one who called the factory) can \"deposit\" assets into the CLODAO.\n  // Each deposit action stores the assets into a buffer, where they can be removed at any time\n  // The assets in the buffer have a price (denominated in various currencies), and the buffer total\n  // is used to track when a deal is closed.\n\n\n  function addAsset(address clodaoAssetAddr) public onlyDaoSponsor {\n\n    CLODAOReceivablesAsset asset = CLODAOReceivablesAsset(clodaoAssetAddr);\n    statistics.totalAssetCount++;\n    statistics.totalPrincipal += asset.principal();\n\n    clodaoAssets.push(clodaoAssetAddr);\n    emit AssetAdded(clodaoAssetAddr);\n\n  }\n\n\n}\n",
  "sourcePath": "/Users/michaeldowling/Projects/clodao/github.com/michaeldowling/clodao/dlt/contracts/CLODAO.sol",
  "compiler": {
    "name": "solc",
    "version": "0.8.10+commit.fc410830.Emscripten.clang"
  },
  "schemaVersion": "3.4.3",
  "updatedAt": "2021-12-04T02:26:36.344Z",
  "devdoc": {
    "kind": "dev",
    "methods": {},
    "version": 1
  },
  "userdoc": {
    "kind": "user",
    "methods": {},
    "version": 1
  }
}