{
  "contractName": "SimpleAmortizedLoanAsset",
  "abi": [
    {
      "inputs": [
        {
          "internalType": "uint32",
          "name": "principalAmt",
          "type": "uint32"
        },
        {
          "internalType": "uint32",
          "name": "dailyInterestRateAmt",
          "type": "uint32"
        }
      ],
      "stateMutability": "nonpayable",
      "type": "constructor"
    },
    {
      "inputs": [],
      "name": "currency",
      "outputs": [
        {
          "internalType": "string",
          "name": "",
          "type": "string"
        }
      ],
      "stateMutability": "view",
      "type": "function"
    },
    {
      "inputs": [],
      "name": "decimals",
      "outputs": [
        {
          "internalType": "uint8",
          "name": "",
          "type": "uint8"
        }
      ],
      "stateMutability": "view",
      "type": "function"
    },
    {
      "inputs": [],
      "name": "principal",
      "outputs": [
        {
          "internalType": "uint32",
          "name": "",
          "type": "uint32"
        }
      ],
      "stateMutability": "view",
      "type": "function"
    },
    {
      "inputs": [],
      "name": "dailyInterestRate",
      "outputs": [
        {
          "internalType": "uint32",
          "name": "",
          "type": "uint32"
        }
      ],
      "stateMutability": "view",
      "type": "function"
    },
    {
      "inputs": [],
      "name": "interestCalculcationMethod",
      "outputs": [
        {
          "internalType": "string",
          "name": "",
          "type": "string"
        }
      ],
      "stateMutability": "view",
      "type": "function"
    }
  ],
  "bytecode": "0x608060405234801561001057600080fd5b50604051610413380380610413833981810160405281019061003291906100bb565b816000806101000a81548163ffffffff021916908363ffffffff16021790555080600060046101000a81548163ffffffff021916908363ffffffff16021790555050506100fb565b600080fd5b600063ffffffff82169050919050565b6100988161007f565b81146100a357600080fd5b50565b6000815190506100b58161008f565b92915050565b600080604083850312156100d2576100d161007a565b5b60006100e0858286016100a6565b92505060206100f1858286016100a6565b9150509250929050565b6103098061010a6000396000f3fe608060405234801561001057600080fd5b50600436106100575760003560e01c8063313ce5671461005c5780637fca631f1461007a5780639dce3c7814610098578063ba5d3078146100b6578063e5a6b10f146100d4575b600080fd5b6100646100f2565b60405161007191906101c3565b60405180910390f35b6100826100fb565b60405161008f91906101fd565b60405180910390f35b6100a0610114565b6040516100ad91906102b1565b60405180910390f35b6100be610151565b6040516100cb91906101fd565b60405180910390f35b6100dc61016a565b6040516100e991906102b1565b60405180910390f35b60006002905090565b60008060049054906101000a900463ffffffff16905090565b60606040518060400160405280600b81526020017f5354415445445f52415445000000000000000000000000000000000000000000815250905090565b60008060009054906101000a900463ffffffff16905090565b60606040518060400160405280600381526020017f5553440000000000000000000000000000000000000000000000000000000000815250905090565b600060ff82169050919050565b6101bd816101a7565b82525050565b60006020820190506101d860008301846101b4565b92915050565b600063ffffffff82169050919050565b6101f7816101de565b82525050565b600060208201905061021260008301846101ee565b92915050565b600081519050919050565b600082825260208201905092915050565b60005b83811015610252578082015181840152602081019050610237565b83811115610261576000848401525b50505050565b6000601f19601f8301169050919050565b600061028382610218565b61028d8185610223565b935061029d818560208601610234565b6102a681610267565b840191505092915050565b600060208201905081810360008301526102cb8184610278565b90509291505056fea264697066735822122037df4b70f4721e99c2dabac5f5972e38870551db2ea93e1c07c082ffeadaa66664736f6c634300080a0033",
  "immutableReferences": {},
  "source": "// SPDX-License-Identifier: Apache-2.0\npragma solidity ^0.8.0;\n\n\nimport \"./Interfaces/CLODAOAsset.sol\";\n\n\ncontract SimpleAmortizedLoanAsset is CLODAOReceivablesAsset {\n\n  uint32 principalAmount;\n  uint32 dailyInterestRateAmount;\n\n  constructor(uint32 principalAmt, uint32 dailyInterestRateAmt) {\n    principalAmount = principalAmt;\n    dailyInterestRateAmount = dailyInterestRateAmt;\n  }\n\n\n  /// @notice Get the currency this asset is denominated in\n  /// @return The currency code this asset is denominated in\n  function currency() external view returns (string memory) {\n    return \"USD\";\n  }\n\n  /// @notice For example, if decimals equals 2, a balance of 505 tokens should be displayed to a user as 5,05 (505 / 10 ** 2).  Tokens usually opt for a value of 18, imitating the relationship between Ether and Wei.\n  /// @return Returns the number of decimals used to get its user representation.\n  function decimals() external view returns (uint8) {\n    return uint8(2);\n  }\n\n  /// @notice Get the original princpal of this asset\n  /// @return The amount of the original principal\n  function principal() external view returns (uint32) {\n    return principalAmount;\n  }\n\n  /// @notice Interest Rate, per day\n  /// @return The interest rate per day, at 6 levels of precision\n  function dailyInterestRate() external view returns (uint32) {\n    return dailyInterestRateAmount;\n  }\n\n  /// @notice The method for calculating interest\n  /// @return STATED_RATE or BANK_METHOD\n  function interestCalculcationMethod() external view returns (string memory) {\n    return \"STATED_RATE\";\n  }\n\n\n}\n",
  "sourcePath": "/Users/michaeldowling/Projects/clodao/github.com/michaeldowling/clodao/dlt/contracts/SimpleAmortizedLoanAsset.sol",
  "compiler": {
    "name": "solc",
    "version": "0.8.10+commit.fc410830.Emscripten.clang"
  },
  "schemaVersion": "3.4.3",
  "updatedAt": "2021-12-04T02:26:36.353Z",
  "devdoc": {
    "kind": "dev",
    "methods": {
      "currency()": {
        "returns": {
          "_0": "The currency code this asset is denominated in"
        }
      },
      "dailyInterestRate()": {
        "returns": {
          "_0": "The interest rate per day, at 6 levels of precision"
        }
      },
      "decimals()": {
        "returns": {
          "_0": "Returns the number of decimals used to get its user representation."
        }
      },
      "interestCalculcationMethod()": {
        "returns": {
          "_0": "STATED_RATE or BANK_METHOD"
        }
      },
      "principal()": {
        "returns": {
          "_0": "The amount of the original principal"
        }
      }
    },
    "version": 1
  },
  "userdoc": {
    "kind": "user",
    "methods": {
      "currency()": {
        "notice": "Get the currency this asset is denominated in"
      },
      "dailyInterestRate()": {
        "notice": "Interest Rate, per day"
      },
      "decimals()": {
        "notice": "For example, if decimals equals 2, a balance of 505 tokens should be displayed to a user as 5,05 (505 / 10 ** 2).  Tokens usually opt for a value of 18, imitating the relationship between Ether and Wei."
      },
      "interestCalculcationMethod()": {
        "notice": "The method for calculating interest"
      },
      "principal()": {
        "notice": "Get the original princpal of this asset"
      }
    },
    "version": 1
  }
}